{
  "contractName": "NuetCoinSale",
  "abi": [
    {
      "constant": true,
      "inputs": [],
      "name": "tokenContract",
      "outputs": [
        {
          "name": "",
          "type": "address"
        }
      ],
      "payable": false,
      "stateMutability": "view",
      "type": "function"
    },
    {
      "constant": true,
      "inputs": [],
      "name": "tokenPrice",
      "outputs": [
        {
          "name": "",
          "type": "uint256"
        }
      ],
      "payable": false,
      "stateMutability": "view",
      "type": "function"
    },
    {
      "inputs": [
        {
          "name": "_tokenContract",
          "type": "address"
        },
        {
          "name": "_tokenPrice",
          "type": "uint256"
        }
      ],
      "payable": false,
      "stateMutability": "nonpayable",
      "type": "constructor"
    },
    {
      "constant": false,
      "inputs": [
        {
          "name": "_numberOfTokens",
          "type": "uint256"
        }
      ],
      "name": "buyTokens",
      "outputs": [],
      "payable": true,
      "stateMutability": "payable",
      "type": "function"
    }
  ],
  "bytecode": "0x608060405234801561001057600080fd5b5060405160408061022f8339810180604052810190808051906020019092919080519060200190929190505050336000806101000a81548173ffffffffffffffffffffffffffffffffffffffff021916908373ffffffffffffffffffffffffffffffffffffffff16021790555081600160006101000a81548173ffffffffffffffffffffffffffffffffffffffff021916908373ffffffffffffffffffffffffffffffffffffffff160217905550806002819055505050610159806100d66000396000f300608060405260043610610057576000357c0100000000000000000000000000000000000000000000000000000000900463ffffffff1680633610724e1461005c57806355a373d61461007c5780637ff9b596146100d3575b600080fd5b61007a600480360381019080803590602001909291905050506100fe565b005b34801561008857600080fd5b50610091610101565b604051808273ffffffffffffffffffffffffffffffffffffffff1673ffffffffffffffffffffffffffffffffffffffff16815260200191505060405180910390f35b3480156100df57600080fd5b506100e8610127565b6040518082815260200191505060405180910390f35b50565b600160009054906101000a900473ffffffffffffffffffffffffffffffffffffffff1681565b600254815600a165627a7a72305820c7b24c6d51897825688dba20f0a1cd163891167a393eaab71efb6f39efe3570e0029",
  "source": "pragma solidity ^0.4.2;\r\n\r\nimport \"./NuetCoin.sol\";\r\ncontract NuetCoinSale {\r\n    address admin;\r\n    NuetCoin public tokenContract;\r\n    uint256 public tokenPrice;\r\n\r\n    constructor(NuetCoin _tokenContract, uint256 _tokenPrice) public {\r\n        // assign an admin which will have control over this tokensale contract\r\n        admin = msg.sender;\r\n        // interacting with the coin contract\r\n        tokenContract = _tokenContract;\r\n        // Token Price in exchange for ethers\r\n        tokenPrice = _tokenPrice;\r\n    }\r\n    function buyTokens(uint256 _numberOfTokens) public payable {\r\n        // keep track of the tokens sold\r\n        // emiting a sell event\r\n        // require that the contract have enough contracts\r\n        // require that the value is equal to the tokenPrice\r\n        // Check whether a transfer was successfull or not\r\n    }\r\n}",
  "sourcePath": "D:\\nuetcoin\\contracts\\NuetCoinSale.sol",
  "compiler": {
    "name": "solc",
    "version": "0.4.25+commit.59dbf8f1.Emscripten.clang"
  },
  "schemaVersion": "2.0.2",
  "updatedAt": "2019-02-23T11:17:20.633Z"
}